{
  "contractName": "BDeployer",
  "abi": [
    {
      "inputs": [],
      "payable": false,
      "stateMutability": "nonpayable",
      "type": "constructor"
    },
    {
      "constant": false,
      "inputs": [
        {
          "internalType": "address",
          "name": "uniswapV2Pair",
          "type": "address"
        },
        {
          "internalType": "uint8",
          "name": "index",
          "type": "uint8"
        }
      ],
      "name": "deployBorrowable",
      "outputs": [
        {
          "internalType": "address",
          "name": "borrowable",
          "type": "address"
        }
      ],
      "payable": false,
      "stateMutability": "nonpayable",
      "type": "function"
    }
  ],
  "bytecode": "0x608060405234801561001057600080fd5b5061470a806100206000396000f3fe608060405234801561001057600080fd5b506004361061002b5760003560e01c806354bcd7ad14610030575b600080fd5b61006c6004803603604081101561004657600080fd5b50803573ffffffffffffffffffffffffffffffffffffffff16906020013560ff16610095565b6040805173ffffffffffffffffffffffffffffffffffffffff9092168252519081900360200190f35b60006060604051806020016100a990610174565b8181037fffffffffffffffffffffffffffffffffffffffffffffffffffffffffffffffe09081018352601f90910116604081815233606090811b6020808501919091529088901b7fffffffffffffffffffffffffffffffffffffffff00000000000000000000000016603484015260f887901b7fff00000000000000000000000000000000000000000000000000000000000000166048840152815180840360290181526049909301909152815191810191909120825192935091829184016000f595945050505050565b614554806101828339019056fe60806040526002805460ff199081166012908117909255600b80549091166001179055600e80546001600160701b031916670de0b6b3a7640000176001600160e01b0316600160e01b4263ffffffff16908102919091179091556010805465ffffffffffff60301b19166a017a029b000000000000001763ffffffff60601b19166c0100000000000000000000000090920291909117905567016345785d8a0000601155670a688906bd8b000090556505436648e1406013553480156100c457600080fd5b50614480806100d46000396000f3fe608060405234801561001057600080fd5b50600436106103995760003560e01c806370a08231116101e9578063b7f1118a1161010f578063c914b437116100ad578063e07660001161007c578063e076600014610b8b578063e12b630614610b93578063fca7820b14610b9b578063fff6cae914610bb857610399565b8063c914b43714610ae2578063d505accf14610aea578063d8dfeb4514610b48578063dd62ed3e14610b5057610399565b8063bc25cf77116100e9578063bc25cf7714610a97578063be340e3214610aca578063c45a015514610ad2578063c72f3fbb14610ada57610399565b8063b7f1118a14610a54578063b95b92a314610a87578063ba9a7a5614610a8f57610399565b806395a2251f11610187578063a6afed9511610156578063a6afed9514610a03578063a9059cbb14610a0b578063aa5af0fd14610a44578063ad7a672f14610a4c57610399565b806395a2251f1461096257806395d89b41146109955780639e79b55c1461099d578063a0715719146109fb57610399565b806386b9d81f116101c357806386b9d81f146108ae57806391b42745146108e9578063926d845b1461090c5780639292b0321461094557610399565b806370a0823114610827578063796b89b91461085a5780637ecebe001461087b57610399565b806335542822116102ce5780634d73e9ba1161026c5780636a030c111161023b5780636a030c11146106d15780636a627842146107b15780636bd76d24146107e45780636f307dc31461081f57610399565b80634d73e9ba1461065d57806355957220146106905780635b2b9d1a146106c157806368544065146106c957610399565b80634322b714116102a85780634322b7141461061a578063452ae95f1461062257806347bd37181461062a5780634a5d316c1461065557610399565b806335542822146105d75780633644e5151461060a5780633ba0b9a91461061257610399565b80632374e8a91161033b57806327549a0b1161031557806327549a0b1461058c5780632d5231d3146105a957806330adf81f146105b1578063313ce567146105b957610399565b80632374e8a91461053957806323b872dd14610541578063253c24f31461058457610399565b8063095ea7b311610377578063095ea7b31461043d57806318160ddd1461048a5780631aebf12f146104925780631e7dcc0d1461049a57610399565b806301f8c1c81461039e57806306fdde03146103b8578063075f4e7f14610435575b600080fd5b6103a6610bc0565b60408051918252519081900360200190f35b6103c0610be4565b6040805160208082528351818301528351919283929083019185019080838360005b838110156103fa5781810151838201526020016103e2565b50505050905090810190601f1680156104275780820380516001836020036101000a031916815260200191505b509250505060405180910390f35b6103a6610c90565b6104766004803603604081101561045357600080fd5b5073ffffffffffffffffffffffffffffffffffffffff8135169060200135610c99565b604080519115158252519081900360200190f35b6103a6610cb0565b6103a6610cb6565b610537600480360360808110156104b057600080fd5b73ffffffffffffffffffffffffffffffffffffffff8235811692602081013590911691604082013591908101906080810160608201356401000000008111156104f857600080fd5b82018360208201111561050a57600080fd5b8035906020019184600183028401116401000000008311171561052c57600080fd5b509092509050610cbc565b005b6103a6611235565b6104766004803603606081101561055757600080fd5b5073ffffffffffffffffffffffffffffffffffffffff813581169160208101359091169060400135611241565b6103a6611355565b610537600480360360208110156105a257600080fd5b503561135f565b6103a6611474565b6103a661147a565b6105c161149e565b6040805160ff9092168252519081900360200190f35b610537600480360360208110156105ed57600080fd5b503573ffffffffffffffffffffffffffffffffffffffff166114a7565b6103a66115ec565b6103a66115f2565b6103a661168b565b6103a6611691565b61063261169a565b604080516dffffffffffffffffffffffffffff9092168252519081900360200190f35b6105376116c2565b6103a66004803603602081101561067357600080fd5b503573ffffffffffffffffffffffffffffffffffffffff16611773565b610698611829565b6040805173ffffffffffffffffffffffffffffffffffffffff9092168252519081900360200190f35b6103a6611845565b6103a661184a565b610537600480360360808110156106e757600080fd5b81019060208101813564010000000081111561070257600080fd5b82018360208201111561071457600080fd5b8035906020019184600183028401116401000000008311171561073657600080fd5b91939092909160208101903564010000000081111561075457600080fd5b82018360208201111561076657600080fd5b8035906020019184600183028401116401000000008311171561078857600080fd5b919350915073ffffffffffffffffffffffffffffffffffffffff81358116916020013516611856565b6103a6600480360360208110156107c757600080fd5b503573ffffffffffffffffffffffffffffffffffffffff166119d7565b6103a6600480360360408110156107fa57600080fd5b5073ffffffffffffffffffffffffffffffffffffffff81358116916020013516611c85565b610698611ca2565b6103a66004803603602081101561083d57600080fd5b503573ffffffffffffffffffffffffffffffffffffffff16611cbe565b610862611cd0565b6040805163ffffffff9092168252519081900360200190f35b6103a66004803603602081101561089157600080fd5b503573ffffffffffffffffffffffffffffffffffffffff16611cda565b6103a6600480360360408110156108c457600080fd5b5073ffffffffffffffffffffffffffffffffffffffff81358116916020013516611cec565b6108f1611fd9565b6040805165ffffffffffff9092168252519081900360200190f35b6104766004803603604081101561092257600080fd5b5073ffffffffffffffffffffffffffffffffffffffff8135169060200135611ff1565b6105376004803603602081101561095b57600080fd5b5035611ffe565b6103a66004803603602081101561097857600080fd5b503573ffffffffffffffffffffffffffffffffffffffff16612118565b6103c061233c565b610537600480360360e08110156109b357600080fd5b5073ffffffffffffffffffffffffffffffffffffffff813581169160208101359091169060408101359060608101359060ff6080820135169060a08101359060c001356123b4565b6103a66123f8565b6105376123fd565b61047660048036036040811015610a2157600080fd5b5073ffffffffffffffffffffffffffffffffffffffff813516906020013561263c565b610632612649565b6103a661265f565b61053760048036036020811015610a6a57600080fd5b503573ffffffffffffffffffffffffffffffffffffffff16612665565b61086261268d565b6103a66126b9565b61053760048036036020811015610aad57600080fd5b503573ffffffffffffffffffffffffffffffffffffffff166126bf565b6103a6612842565b610698612848565b6103a6612864565b6108f1612870565b610537600480360360e0811015610b0057600080fd5b5073ffffffffffffffffffffffffffffffffffffffff813581169160208101359091169060408101359060608101359060ff6080820135169060a08101359060c0013561287e565b6106986128b9565b6103a660048036036040811015610b6657600080fd5b5073ffffffffffffffffffffffffffffffffffffffff813581169160200135166128da565b6103a66128f7565b6108626128ff565b61053760048036036020811015610bb157600080fd5b503561291b565b610537612a2e565b7ff6d86ed606f871fa1a557ac0ba607adce07767acf53f492fb215a1a4db4aea6f81565b6000805460408051602060026001851615610100027fffffffffffffffffffffffffffffffffffffffffffffffffffffffffffffffff0190941693909304601f81018490048402820184019092528181529291830182828015610c885780601f10610c5d57610100808354040283529160200191610c88565b820191906000526020600020905b815481529060010190602001808311610c6b57829003601f168201915b505050505081565b640d7957c4d081565b6000610ca6338484612b04565b5060015b92915050565b60035481565b60125481565b600b5460ff16610d2d57604080517f08c379a000000000000000000000000000000000000000000000000000000000815260206004820152601360248201527f496d7065726d61783a205245454e544552454400000000000000000000000000604482015290519081900360640190fd5b600b80547fffffffffffffffffffffffffffffffffffffffffffffffffffffffffffffff00169055610d5d6123fd565b600a5480841115610dcf57604080517f08c379a000000000000000000000000000000000000000000000000000000000815260206004820152601b60248201527f496d7065726d61783a20494e53554646494349454e545f434153480000000000604482015290519081900360640190fd5b610dda863386612b73565b8315610dea57610dea8585612c8a565b8115610ec2576040517f876d9d9e000000000000000000000000000000000000000000000000000000008152336004820181815273ffffffffffffffffffffffffffffffffffffffff898116602485015260448401889052608060648501908152608485018790529089169363876d9d9e93928b928a928a928a92909160a401848480828437600081840152601f19601f8201169050808301925050509650505050505050600060405180830381600087803b158015610ea957600080fd5b505af1158015610ebd573d6000803e3d6000fd5b505050505b600854604080517f70a08231000000000000000000000000000000000000000000000000000000008152306004820152905160009273ffffffffffffffffffffffffffffffffffffffff16916370a08231916024808301926020929190829003018186803b158015610f3357600080fd5b505afa158015610f47573d6000803e3d6000fd5b505050506040513d6020811015610f5d57600080fd5b505190506000610f8b670de0b6b3a7640000610f7f888463ffffffff612e9016565b9063ffffffff612f0a16565b90506000610f9f878363ffffffff612f4c16565b90506000610fc385610fb7868b63ffffffff612f4c16565b9063ffffffff612fc016565b90506000806000610fd58d8686613002565b9250925092508385111561115757600b60019054906101000a900473ffffffffffffffffffffffffffffffffffffffff1673ffffffffffffffffffffffffffffffffffffffff16639aac2c538e30856040518463ffffffff1660e01b8152600401808473ffffffffffffffffffffffffffffffffffffffff1673ffffffffffffffffffffffffffffffffffffffff1681526020018373ffffffffffffffffffffffffffffffffffffffff1673ffffffffffffffffffffffffffffffffffffffff1681526020018281526020019350505050602060405180830381600087803b1580156110c057600080fd5b505af11580156110d4573d6000803e3d6000fd5b505050506040513d60208110156110ea57600080fd5b505161115757604080517f08c379a000000000000000000000000000000000000000000000000000000000815260206004820181905260248201527f496d7065726d61783a20494e53554646494349454e545f4c4951554944495459604482015290519081900360640190fd5b8b73ffffffffffffffffffffffffffffffffffffffff168d73ffffffffffffffffffffffffffffffffffffffff163373ffffffffffffffffffffffffffffffffffffffff167f33f3048bd4e6af45e53afb722adfd57dbde82da7e93e44db921fb4b8c6a70c4b8e88888888604051808681526020018581526020018481526020018381526020018281526020019550505050505060405180910390a4505050505050505061120361331e565b5050600b80547fffffffffffffffffffffffffffffffffffffffffffffffffffffffffffffff00166001179055505050565b6706f05b59d3b2000081565b73ffffffffffffffffffffffffffffffffffffffff831660009081526005602090815260408083203384529091528120547fffffffffffffffffffffffffffffffffffffffffffffffffffffffffffffffff1461134057604080518082018252601e81527f496d7065726d61783a205452414e534645525f4e4f545f414c4c4f574544000060208083019190915273ffffffffffffffffffffffffffffffffffffffff8716600090815260058252838120338252909152919091205461130e91849063ffffffff61332e16565b73ffffffffffffffffffffffffffffffffffffffff851660009081526005602090815260408083203384529091529020555b61134b8484846133df565b5060019392505050565b6534a1fed8cc8081565b600b5460ff166113d057604080517f08c379a000000000000000000000000000000000000000000000000000000000815260206004820152601360248201527f496d7065726d61783a205245454e544552454400000000000000000000000000604482015290519081900360640190fd5b600b80547fffffffffffffffffffffffffffffffffffffffffffffffffffffffffffffff0016905561140e81640d7957c4d06534a1fed8cc806134f8565b60138190556040805182815290517f1396dfcdb64fb7eb77fb84966f27b81afe14aa70b6e966c68d74af3302a9fe909181900360200190a150600b80547fffffffffffffffffffffffffffffffffffffffffffffffffffffffffffffff00166001179055565b60135481565b7f6e71edae12b1b97f4d1f60370fef10105fa2faae0126114a169c64845d6126c981565b60025460ff1681565b600b5460ff1661151857604080517f08c379a000000000000000000000000000000000000000000000000000000000815260206004820152601360248201527f496d7065726d61783a205245454e544552454400000000000000000000000000604482015290519081900360640190fd5b600b80547fffffffffffffffffffffffffffffffffffffffffffffffffffffffffffffff001690556115486135e3565b6014805473ffffffffffffffffffffffffffffffffffffffff83167fffffffffffffffffffffffff0000000000000000000000000000000000000000909116811790915560408051918252517f468b6598e7e810c65c9858b5f23a2d5b8692fb753b78a032232de4c6ed3cabbf9181900360200190a150600b80547fffffffffffffffffffffffffffffffffffffffffffffffffffffffffffffff00166001179055565b60065481565b60006115fc6123fd565b600354600e54600a5460009161163491906e01000000000000000000000000000090046dffffffffffffffffffffffffffff16612f4c565b9050811580611641575080155b1561165857670de0b6b3a764000092505050611688565b600061167683610f7f84670de0b6b3a764000063ffffffff612e9016565b905061168281846136fa565b93505050505b90565b60115481565b64b89345af0081565b600e546e01000000000000000000000000000090046dffffffffffffffffffffffffffff1681565b60095473ffffffffffffffffffffffffffffffffffffffff161561174757604080517f08c379a000000000000000000000000000000000000000000000000000000000815260206004820152601d60248201527f496d7065726d61783a20464143544f52595f414c52454144595f534554000000604482015290519081900360640190fd5b600980547fffffffffffffffffffffffff00000000000000000000000000000000000000001633179055565b600061177d614333565b5073ffffffffffffffffffffffffffffffffffffffff82166000908152600d60209081526040918290208251808401909352546dffffffffffffffffffffffffffff80821684526e010000000000000000000000000000909104169082018190526117ec576000915050611824565b6020810151600e548251611820926dffffffffffffffffffffffffffff90811692610f7f928216911663ffffffff612e9016565b9150505b919050565b60145473ffffffffffffffffffffffffffffffffffffffff1681565b600281565b670dbd2fc137a3000081565b60095473ffffffffffffffffffffffffffffffffffffffff1633146118dc57604080517f08c379a000000000000000000000000000000000000000000000000000000000815260206004820152601660248201527f496d7065726d61783a20554e415554484f52495a454400000000000000000000604482015290519081900360640190fd5b61194f86868080601f01602080910402602001604051908101604052809392919081815260200183838082843760009201919091525050604080516020601f8a01819004810282018101909252888152925088915087908190840183828082843760009201919091525061382c92505050565b6008805473ffffffffffffffffffffffffffffffffffffffff9384167fffffffffffffffffffffffff0000000000000000000000000000000000000000909116179055600b805491909216610100027fffffffffffffffffffffff0000000000000000000000000000000000000000ff9091161790555050670de0b6b3a7640000600f555050565b600b5460009060ff16611a4b57604080517f08c379a000000000000000000000000000000000000000000000000000000000815260206004820152601360248201527f496d7065726d61783a205245454e544552454400000000000000000000000000604482015290519081900360640190fd5b600b80547fffffffffffffffffffffffffffffffffffffffffffffffffffffffffffffff00169055600854604080517f70a08231000000000000000000000000000000000000000000000000000000008152306004820152905160009273ffffffffffffffffffffffffffffffffffffffff16916370a08231916024808301926020929190829003018186803b158015611ae457600080fd5b505afa158015611af8573d6000803e3d6000fd5b505050506040513d6020811015611b0e57600080fd5b5051600a54909150600090611b2a90839063ffffffff612fc016565b9050611b4f611b376115f2565b610f7f83670de0b6b3a764000063ffffffff612e9016565b925060035460001415611b7d57611b6e836103e863ffffffff612fc016565b9250611b7d60006103e8613910565b60008311611bec57604080517f08c379a000000000000000000000000000000000000000000000000000000000815260206004820152601a60248201527f496d7065726d61783a204d494e545f414d4f554e545f5a45524f000000000000604482015290519081900360640190fd5b611bf68484613910565b6040805182815260208101859052815173ffffffffffffffffffffffffffffffffffffffff87169233927f2f00e3cdd69a77be7ed215ec7b2a36784dd158f921fca79ac29deffa353fe6ee929081900390910190a35050611c5561331e565b600b80547fffffffffffffffffffffffffffffffffffffffffffffffffffffffffffffff00166001179055919050565b600c60209081526000928352604080842090915290825290205481565b60085473ffffffffffffffffffffffffffffffffffffffff1681565b60046020526000908152604090205481565b63ffffffff421690565b60076020526000908152604090205481565b600b5460009060ff16611d6057604080517f08c379a000000000000000000000000000000000000000000000000000000000815260206004820152601360248201527f496d7065726d61783a205245454e544552454400000000000000000000000000604482015290519081900360640190fd5b600b80547fffffffffffffffffffffffffffffffffffffffffffffffffffffffffffffff00169055611d906123fd565b600854604080517f70a08231000000000000000000000000000000000000000000000000000000008152306004820152905160009273ffffffffffffffffffffffffffffffffffffffff16916370a08231916024808301926020929190829003018186803b158015611e0157600080fd5b505afa158015611e15573d6000803e3d6000fd5b505050506040513d6020811015611e2b57600080fd5b5051600a54909150600090611e4790839063ffffffff612fc016565b90506000611e5d611e5787611773565b836139c1565b600b54604080517fb2a02ff100000000000000000000000000000000000000000000000000000000815273ffffffffffffffffffffffffffffffffffffffff89811660048301528a81166024830152604482018590529151939450610100909204169163b2a02ff1916064808201926020929091908290030181600087803b158015611ee857600080fd5b505af1158015611efc573d6000803e3d6000fd5b505050506040513d6020811015611f1257600080fd5b5051935060008080611f25898287613002565b604080518b8152602081018a905280820185905260608101849052608081018390529051939650919450925073ffffffffffffffffffffffffffffffffffffffff808b1692908c169133917fb0dbe18c6ffdf0da655dd690e77211d379205c497be44c64447c3f5f021b51679181900360a00190a4505050505050611fa861331e565b600b80547fffffffffffffffffffffffffffffffffffffffffffffffffffffffffffffff0016600117905592915050565b6010546601000000000000900465ffffffffffff1681565b6000610ca63384846139d7565b600b5460ff1661206f57604080517f08c379a000000000000000000000000000000000000000000000000000000000815260206004820152601360248201527f496d7065726d61783a205245454e544552454400000000000000000000000000604482015290519081900360640190fd5b600b80547fffffffffffffffffffffffffffffffffffffffffffffffffffffffffffffff001690556120b2816706f05b59d3b20000670dbd2fc137a300006134f8565b60128190556040805182815290517f7a550b1995ff63260fb313f12024e66e73bad425372e5af6b1e04cb3799ef38c9181900360200190a150600b80547fffffffffffffffffffffffffffffffffffffffffffffffffffffffffffffff00166001179055565b600b5460009060ff1661218c57604080517f08c379a000000000000000000000000000000000000000000000000000000000815260206004820152601360248201527f496d7065726d61783a205245454e544552454400000000000000000000000000604482015290519081900360640190fd5b600b80547fffffffffffffffffffffffffffffffffffffffffffffffffffffffffffffff00169055306000908152600460205260409020546121e8670de0b6b3a7640000610f7f6121db6115f2565b849063ffffffff612e9016565b91506000821161225957604080517f08c379a000000000000000000000000000000000000000000000000000000000815260206004820152601c60248201527f496d7065726d61783a2052454445454d5f414d4f554e545f5a45524f00000000604482015290519081900360640190fd5b600a548211156122ca57604080517f08c379a000000000000000000000000000000000000000000000000000000000815260206004820152601b60248201527f496d7065726d61783a20494e53554646494349454e545f434153480000000000604482015290519081900360640190fd5b6122d43082613a46565b6122de8383612c8a565b6040805183815260208101839052815173ffffffffffffffffffffffffffffffffffffffff86169233927f3f693fff038bb8a046aa76d9516190ac7444f7d69cf952c4cbdc086fdef2d6fc929081900390910190a350611c5561331e565b60018054604080516020600284861615610100027fffffffffffffffffffffffffffffffffffffffffffffffffffffffffffffffff0190941693909304601f81018490048402820184019092528181529291830182828015610c885780601f10610c5d57610100808354040283529160200191610c88565b6123e4878787878787877ff6d86ed606f871fa1a557ac0ba607adce07767acf53f492fb215a1a4db4aea6f613b0a565b6123ef8787876139d7565b50505050505050565b600081565b600e546dffffffffffffffffffffffffffff808216916e0100000000000000000000000000008104909116907c0100000000000000000000000000000000000000000000000000000000900463ffffffff166000612459611cd0565b90508063ffffffff168263ffffffff161415612478575050505061263a565b600e805463ffffffff8084167c0100000000000000000000000000000000000000000000000000000000027bffffffffffffffffffffffffffffffffffffffffffffffffffffffff90921691909117909155601054838303916000916124ed9165ffffffffffff9091169080851690612e9016565b9050600061250d670de0b6b3a7640000610f7f848963ffffffff612e9016565b905061251f868263ffffffff612f4c16565b955061254d612540670de0b6b3a7640000610f7f858b63ffffffff612e9016565b889063ffffffff612f4c16565b965061255887613dad565b600e80547fffffffffffffffffffffffffffffffffffff0000000000000000000000000000166dffffffffffffffffffffffffffff929092169190911790556125a086613dad565b600e80546dffffffffffffffffffffffffffff929092166e010000000000000000000000000000027fffffffff0000000000000000000000000000ffffffffffffffffffffffffffff909216919091179055604080518281526020810189905280820188905290517f875352fb3fadeb8c0be7cbbe8ff761b308fa7033470cd0287f02f3436fd76cb99181900360600190a1505050505050505b565b6000610ca63384846133df565b600e546dffffffffffffffffffffffffffff1681565b600a5481565b61268a8161267283611773565b600e546dffffffffffffffffffffffffffff16613e30565b50565b600e547c0100000000000000000000000000000000000000000000000000000000900463ffffffff1681565b6103e881565b600b5460ff1661273057604080517f08c379a000000000000000000000000000000000000000000000000000000000815260206004820152601360248201527f496d7065726d61783a205245454e544552454400000000000000000000000000604482015290519081900360640190fd5b600b80547fffffffffffffffffffffffffffffffffffffffffffffffffffffffffffffff00169055600a54600854604080517f70a08231000000000000000000000000000000000000000000000000000000008152306004820152905161281493859361280f93919273ffffffffffffffffffffffffffffffffffffffff909116916370a08231916024808301926020929190829003018186803b1580156127d757600080fd5b505afa1580156127eb573d6000803e3d6000fd5b505050506040513d602081101561280157600080fd5b50519063ffffffff612fc016565b612c8a565b50600b80547fffffffffffffffffffffffffffffffffffffffffffffffffffffffffffffff00166001179055565b600f5481565b60095473ffffffffffffffffffffffffffffffffffffffff1681565b6702c68af0bb14000081565b60105465ffffffffffff1681565b6128ae878787878787877f6e71edae12b1b97f4d1f60370fef10105fa2faae0126114a169c64845d6126c9613b0a565b6123ef878787612b04565b600b54610100900473ffffffffffffffffffffffffffffffffffffffff1681565b600560209081526000928352604080842090915290825290205481565b6312e687c081565b6010546c01000000000000000000000000900463ffffffff1681565b600b5460ff1661298c57604080517f08c379a000000000000000000000000000000000000000000000000000000000815260206004820152601360248201527f496d7065726d61783a205245454e544552454400000000000000000000000000604482015290519081900360640190fd5b600b80547fffffffffffffffffffffffffffffffffffffffffffffffffffffffffffffff001690556129c88160006702c68af0bb1400006134f8565b60118190556040805182815290517f9d9cd27245b4e6b06dcf523ac57b6e851b934e199eee376313f906e94bfbfd559181900360200190a150600b80547fffffffffffffffffffffffffffffffffffffffffffffffffffffffffffffff00166001179055565b600b5460ff16612a9f57604080517f08c379a000000000000000000000000000000000000000000000000000000000815260206004820152601360248201527f496d7065726d61783a205245454e544552454400000000000000000000000000604482015290519081900360640190fd5b600b80547fffffffffffffffffffffffffffffffffffffffffffffffffffffffffffffff00169055612acf6123fd565b612ad761331e565b600b80547fffffffffffffffffffffffffffffffffffffffffffffffffffffffffffffff00166001179055565b73ffffffffffffffffffffffffffffffffffffffff808416600081815260056020908152604080832094871680845294825291829020859055815185815291517f8c5be1e5ebec7d5bd14f71427d1e84f3dd0314c0f7b2291e5b200ac8c7c3b9259281900390910190a3505050565b73ffffffffffffffffffffffffffffffffffffffff8084166000818152600c60209081526040808320948716808452949091529020549114801590612bd857507fffffffffffffffffffffffffffffffffffffffffffffffffffffffffffffffff8114155b15612c845781811015612c4c57604080517f08c379a000000000000000000000000000000000000000000000000000000000815260206004820152601c60248201527f496d7065726d61783a20424f52524f575f4e4f545f414c4c4f57454400000000604482015290519081900360640190fd5b73ffffffffffffffffffffffffffffffffffffffff8085166000908152600c6020908152604080832093871683529290522082820390555b50505050565b600854604080518082018252601981527f7472616e7366657228616464726573732c75696e743235362900000000000000602091820152815173ffffffffffffffffffffffffffffffffffffffff86811660248301526044808301879052845180840390910181526064909201845291810180517bffffffffffffffffffffffffffffffffffffffffffffffffffffffff167fa9059cbb000000000000000000000000000000000000000000000000000000001781529251815160009560609594169382918083835b60208310612d9057805182527fffffffffffffffffffffffffffffffffffffffffffffffffffffffffffffffe09092019160209182019101612d53565b6001836020036101000a0380198251168184511680821785525050505050509050019150506000604051808303816000865af19150503d8060008114612df2576040519150601f19603f3d011682016040523d82523d6000602084013e612df7565b606091505b5091509150818015612e25575080511580612e255750808060200190516020811015612e2257600080fd5b50515b612c8457604080517f08c379a000000000000000000000000000000000000000000000000000000000815260206004820152601960248201527f496d7065726d61783a205452414e534645525f4641494c454400000000000000604482015290519081900360640190fd5b600082612e9f57506000610caa565b82820282848281612eac57fe5b0414612f03576040517f08c379a000000000000000000000000000000000000000000000000000000000815260040180806020018281038252602181526020018061442b6021913960400191505060405180910390fd5b9392505050565b6000612f0383836040518060400160405280601a81526020017f536166654d6174683a206469766973696f6e206279207a65726f000000000000815250613ef1565b600082820183811015612f0357604080517f08c379a000000000000000000000000000000000000000000000000000000000815260206004820152601b60248201527f536166654d6174683a206164646974696f6e206f766572666c6f770000000000604482015290519081900360640190fd5b6000612f0383836040518060400160405280601f81526020017f536166654d6174683a207375627472616374696f6e20756e646572666c6f770081525061332e565b600080600061301086611773565b925083851415613048575050600e5481906e01000000000000000000000000000090046dffffffffffffffffffffffffffff16613315565b600e546dffffffffffffffffffffffffffff16848611156131705773ffffffffffffffffffffffffffffffffffffffff87166000908152600d6020526040902085870361309b868263ffffffff612f4c16565b94506130a685613dad565b82547fffffffffffffffffffffffffffffffffffff0000000000000000000000000000166dffffffffffffffffffffffffffff918216177fffffffff0000000000000000000000000000ffffffffffffffffffffffffffff166e0100000000000000000000000000008583168102919091178455600e5461312b929190041682612f4c565b935061313684613dad565b600e806101000a8154816dffffffffffffffffffffffffffff02191690836dffffffffffffffffffffffffffff16021790555050506132f8565b73ffffffffffffffffffffffffffffffffffffffff87166000908152600d602052604090208686038086116131a65760006131aa565b8086035b94506131b585613dad565b82547fffffffffffffffffffffffffffffffffffff0000000000000000000000000000166dffffffffffffffffffffffffffff919091161782558461321f5781547fffffffff0000000000000000000000000000ffffffffffffffffffffffffffff168255613269565b81547fffffffff0000000000000000000000000000ffffffffffffffffffffffffffff166e0100000000000000000000000000006dffffffffffffffffffffffffffff8516021782555b600061327b878763ffffffff612fc016565b600e546e01000000000000000000000000000090046dffffffffffffffffffffffffffff16955090508085116132b25760006132b6565b8085035b94506132c185613dad565b600e806101000a8154816dffffffffffffffffffffffffffff02191690836dffffffffffffffffffffffffffff1602179055505050505b6133138784836dffffffffffffffffffffffffffff16613e30565b505b93509350939050565b613326613f70565b61263a614046565b600081848411156133d7576040517f08c379a00000000000000000000000000000000000000000000000000000000081526004018080602001828103825283818151815260200191508051906020019080838360005b8381101561339c578181015183820152602001613384565b50505050905090810190601f1680156133c95780820380516001836020036101000a031916815260200191505b509250505060405180910390fd5b505050900390565b604080518082018252601b81527f496d7065726d61783a205452414e534645525f544f4f5f48494748000000000060208083019190915273ffffffffffffffffffffffffffffffffffffffff861660009081526004909152919091205461344d91839063ffffffff61332e16565b73ffffffffffffffffffffffffffffffffffffffff808516600090815260046020526040808220939093559084168152205461348f908263ffffffff612f4c16565b73ffffffffffffffffffffffffffffffffffffffff80841660008181526004602090815260409182902094909455805185815290519193928716927fddf252ad1be2c89b69c2b068fc378daa952ba7f163c4a11628f55a4df523b3ef92918290030190a3505050565b6135006135e3565b8183101561356f57604080517f08c379a000000000000000000000000000000000000000000000000000000000815260206004820152601960248201527f496d7065726d61783a20494e56414c49445f53455454494e4700000000000000604482015290519081900360640190fd5b808311156135de57604080517f08c379a000000000000000000000000000000000000000000000000000000000815260206004820152601960248201527f496d7065726d61783a20494e56414c49445f53455454494e4700000000000000604482015290519081900360640190fd5b505050565b600960009054906101000a900473ffffffffffffffffffffffffffffffffffffffff1673ffffffffffffffffffffffffffffffffffffffff1663f851a4406040518163ffffffff1660e01b815260040160206040518083038186803b15801561364b57600080fd5b505afa15801561365f573d6000803e3d6000fd5b505050506040513d602081101561367557600080fd5b505173ffffffffffffffffffffffffffffffffffffffff16331461263a57604080517f08c379a000000000000000000000000000000000000000000000000000000000815260206004820152601660248201527f496d7065726d61783a20554e415554484f52495a454400000000000000000000604482015290519081900360640190fd5b600f546000908084111561382357600061374b61373e670de0b6b3a7640000610f7f601154613732878b612fc090919063ffffffff16565b9063ffffffff612e9016565b869063ffffffff612fc016565b9050600061376785610fb784610f7f838b63ffffffff612e9016565b9050801561381457600954604080517f345ef941000000000000000000000000000000000000000000000000000000008152905160009273ffffffffffffffffffffffffffffffffffffffff169163345ef941916004808301926020929190829003018186803b1580156137da57600080fd5b505afa1580156137ee573d6000803e3d6000fd5b505050506040513d602081101561380457600080fd5b505190506138128183613910565b505b50600f8190559150610caa9050565b83915050610caa565b815161383f90600090602085019061434a565b50805161385390600190602084019061434a565b5060405146908060526143d982396040805191829003605201822086516020978801208383018352600184527f310000000000000000000000000000000000000000000000000000000000000093880193909352815180880191909152808201929092527fc89efdaa54c0f20c7adf612882df0950f5a951637e0307cdcb4c672f298b8bc6606083015260808201939093523060a0808301919091528351808303909101815260c090910190925250805192019190912060065550565b600354613923908263ffffffff612f4c16565b60035573ffffffffffffffffffffffffffffffffffffffff821660009081526004602052604090205461395c908263ffffffff612f4c16565b73ffffffffffffffffffffffffffffffffffffffff831660008181526004602090815260408083209490945583518581529351929391927fddf252ad1be2c89b69c2b068fc378daa952ba7f163c4a11628f55a4df523b3ef9281900390910190a35050565b60008183106139d05781612f03565b5090919050565b73ffffffffffffffffffffffffffffffffffffffff8084166000818152600c6020908152604080832094871680845294825291829020859055815185815291517fc3c1215b41d54142382d54a05fb991007165ae91bcb1879bac8b290d9111aaf49281900390910190a3505050565b73ffffffffffffffffffffffffffffffffffffffff8216600090815260046020526040902054613a7c908263ffffffff612fc016565b73ffffffffffffffffffffffffffffffffffffffff8316600090815260046020526040902055600354613ab5908263ffffffff612fc016565b60035560408051828152905160009173ffffffffffffffffffffffffffffffffffffffff8516917fddf252ad1be2c89b69c2b068fc378daa952ba7f163c4a11628f55a4df523b3ef9181900360200190a35050565b42851015613b7957604080517f08c379a000000000000000000000000000000000000000000000000000000000815260206004820152601160248201527f496d7065726d61783a2045585049524544000000000000000000000000000000604482015290519081900360640190fd5b60065473ffffffffffffffffffffffffffffffffffffffff808a1660008181526007602090815260408083208054600180820190925582518085018a905280840196909652958e166060860152608085018d905260a085019590955260c08085018c90528151808603909101815260e0850182528051908301207f19010000000000000000000000000000000000000000000000000000000000006101008601526101028501969096526101228085019690965280518085039096018652610142840180825286519683019690962095839052610162840180825286905260ff8a166101828501526101a284018990526101c28401889052519193926101e2808201937fffffffffffffffffffffffffffffffffffffffffffffffffffffffffffffffe081019281900390910190855afa158015613cbb573d6000803e3d6000fd5b50506040517fffffffffffffffffffffffffffffffffffffffffffffffffffffffffffffffe0015191505073ffffffffffffffffffffffffffffffffffffffff811615801590613d3657508973ffffffffffffffffffffffffffffffffffffffff168173ffffffffffffffffffffffffffffffffffffffff16145b613da157604080517f08c379a000000000000000000000000000000000000000000000000000000000815260206004820152601b60248201527f496d7065726d61783a20494e56414c49445f5349474e41545552450000000000604482015290519081900360640190fd5b50505050505050505050565b60006e0100000000000000000000000000008210613e2c57604080517f08c379a000000000000000000000000000000000000000000000000000000000815260206004820152601160248201527f496d7065726d61783a2053414645313132000000000000000000000000000000604482015290519081900360640190fd5b5090565b60145473ffffffffffffffffffffffffffffffffffffffff1680613e5457506135de565b604080517f05285d7f00000000000000000000000000000000000000000000000000000000815273ffffffffffffffffffffffffffffffffffffffff868116600483015260248201869052604482018590529151918316916305285d7f9160648082019260009290919082900301818387803b158015613ed357600080fd5b505af1158015613ee7573d6000803e3d6000fd5b5050505050505050565b60008183613f5a576040517f08c379a000000000000000000000000000000000000000000000000000000000815260206004820181815283516024840152835190928392604490910191908501908083836000831561339c578181015183820152602001613384565b506000838581613f6657fe5b0495945050505050565b600854604080517f70a08231000000000000000000000000000000000000000000000000000000008152306004820152905173ffffffffffffffffffffffffffffffffffffffff909216916370a0823191602480820192602092909190829003018186803b158015613fe157600080fd5b505afa158015613ff5573d6000803e3d6000fd5b505050506040513d602081101561400b57600080fd5b5051600a81905560408051918252517f8a0df8ef054fae2c3d2d19a7b322e864870cc9fd3cb07fb9526309c596244bf49181900360200190a1565b60125460135460105465ffffffffffff8082169166010000000000008104909116906c01000000000000000000000000900463ffffffff16600081614089611cd0565b03905063ffffffff811615614214576140a0611cd0565b6010600c6101000a81548163ffffffff021916908363ffffffff160217905550600083851015614129576000670de0b6b3a76400008363ffffffff168887898903670de0b6b3a764000002816140f257fe5b040202816140fc57fe5b049050670de0b6b3a7640000811161411e5780670de0b6b3a764000003614121565b60005b91505061416a565b6000670de0b6b3a76400008363ffffffff168887888a03670de0b6b3a7640000028161415157fe5b0402028161415b57fe5b04670de0b6b3a7640000019150505b670de0b6b3a764000084820204935064b89345af0084111561418f5764b89345af0093505b6312e687c08410156141a3576312e687c093505b601080547fffffffffffffffffffffffffffffffffffffffff000000000000ffffffffffff16660100000000000065ffffffffffff8716021790556040805185815290517f713a98ffb7d769b8e33e2ee945ebb6acb7f397532688164d3ce1081f903c77bc916020908290030190a1505b600e54600a546000916e01000000000000000000000000000090046dffffffffffffffffffffffffffff1690829061424c9083612f4c565b9050801561426d578082670de0b6b3a7640000028161426757fe5b04614270565b60005b9250505086811161428e57868185028161428657fe5b0494506142c4565b600087670de0b6b3a764000003888303670de0b6b3a764000002816142af57fe5b670de0b6b3a764000091900481018602049550505b601080547fffffffffffffffffffffffffffffffffffffffffffffffffffff0000000000001665ffffffffffff87161790556040805186815290517f338541dc9083f6af6715482fb419e1483c1ae9097764fd68a5dc98109bd5a788916020908290030190a150505050505050565b604080518082019091526000808252602082015290565b828054600181600116156101000203166002900490600052602060002090601f016020900481019282601f1061438b57805160ff19168380011785556143b8565b828001600101855582156143b8579182015b828111156143b857825182559160200191906001019061439d565b50613e2c926116889250905b80821115613e2c57600081556001016143c456fe454950373132446f6d61696e28737472696e67206e616d652c737472696e672076657273696f6e2c75696e7432353620636861696e49642c6164647265737320766572696679696e67436f6e747261637429536166654d6174683a206d756c7469706c69636174696f6e206f766572666c6f77a265627a7a72315820726233a10418f84e085714b457a1fac8dc5b0d89ce51e4fe444e8270acd7cb3164736f6c63430005100032a265627a7a723158201271859268daa450867550546369289f2e1936242e87b50e4851d4bca7857dfa64736f6c63430005100032",
  "source": "pragma solidity =0.5.16;\r\n\r\nimport \"./Borrowable.sol\";\r\nimport \"./interfaces/IBDeployer.sol\";\r\n\r\n/*\r\n * This contract is used by the Factory to deploy Borrowable(s)\r\n * The bytecode would be too long to fit in the Factory\r\n */\r\n\r\ncontract BDeployer is IBDeployer {\r\n\tconstructor () public {}\r\n\t\r\n\tfunction deployBorrowable(address uniswapV2Pair, uint8 index) external returns (address borrowable) {\r\n\t\tbytes memory bytecode = type(Borrowable).creationCode;\r\n\t\tbytes32 salt = keccak256(abi.encodePacked(msg.sender, uniswapV2Pair, index));\r\n\t\tassembly {\r\n\t\t\tborrowable := create2(0, add(bytecode, 32), mload(bytecode), salt)\r\n\t\t}\r\n\t}\r\n}",
  "sourcePath": "C:/Users/simor/Desktop/impermax-x-uniswapv2-core/contracts/BDeployer.sol",
  "compiler": {
    "name": "solc",
    "version": "0.5.16+commit.9c3226ce.Emscripten.clang"
  },
  "schemaVersion": "3.3.2",
  "updatedAt": "2022-03-14T10:55:07.188Z",
  "devdoc": {
    "methods": {}
  },
  "userdoc": {
    "methods": {}
  }
}