{
  "contractName": "CStorage",
  "abi": [
    {
      "constant": true,
      "inputs": [],
      "name": "borrowable0",
      "outputs": [
        {
          "internalType": "address",
          "name": "",
          "type": "address"
        }
      ],
      "payable": false,
      "stateMutability": "view",
      "type": "function"
    },
    {
      "constant": true,
      "inputs": [],
      "name": "borrowable1",
      "outputs": [
        {
          "internalType": "address",
          "name": "",
          "type": "address"
        }
      ],
      "payable": false,
      "stateMutability": "view",
      "type": "function"
    },
    {
      "constant": true,
      "inputs": [],
      "name": "liquidationFee",
      "outputs": [
        {
          "internalType": "uint256",
          "name": "",
          "type": "uint256"
        }
      ],
      "payable": false,
      "stateMutability": "view",
      "type": "function"
    },
    {
      "constant": true,
      "inputs": [],
      "name": "liquidationIncentive",
      "outputs": [
        {
          "internalType": "uint256",
          "name": "",
          "type": "uint256"
        }
      ],
      "payable": false,
      "stateMutability": "view",
      "type": "function"
    },
    {
      "constant": true,
      "inputs": [],
      "name": "safetyMarginSqrt",
      "outputs": [
        {
          "internalType": "uint256",
          "name": "",
          "type": "uint256"
        }
      ],
      "payable": false,
      "stateMutability": "view",
      "type": "function"
    },
    {
      "constant": true,
      "inputs": [],
      "name": "simpleUniswapOracle",
      "outputs": [
        {
          "internalType": "address",
          "name": "",
          "type": "address"
        }
      ],
      "payable": false,
      "stateMutability": "view",
      "type": "function"
    },
    {
      "constant": true,
      "inputs": [],
      "name": "liquidationPenalty",
      "outputs": [
        {
          "internalType": "uint256",
          "name": "",
          "type": "uint256"
        }
      ],
      "payable": false,
      "stateMutability": "view",
      "type": "function"
    }
  ],
  "bytecode": "0x60806040526715f155637eba0c00600355670e27c49886e6000060045566470de4df82000060055534801561003357600080fd5b5061019a806100436000396000f3fe608060405234801561001057600080fd5b506004361061007d5760003560e01c80637c6674b51161005b5780637c6674b5146100d55780638c765e94146100dd578063a36a3630146100e5578063daf88818146100ed5761007d565b806323f5589a146100825780632fa5ae1b1461009c578063356c571f146100cd575b600080fd5b61008a6100f5565b60408051918252519081900360200190f35b6100a46100ff565b6040805173ffffffffffffffffffffffffffffffffffffffff9092168252519081900360200190f35b61008a61011b565b6100a4610121565b61008a61013d565b61008a610143565b6100a4610149565b6005546004540190565b60005473ffffffffffffffffffffffffffffffffffffffff1681565b60035481565b60025473ffffffffffffffffffffffffffffffffffffffff1681565b60045481565b60055481565b60015473ffffffffffffffffffffffffffffffffffffffff168156fea265627a7a7231582075d8f52971d2ca1faad0514a06cb486291e64f39d088e58a26fc14b14c3b309f64736f6c63430005100032",
  "source": "pragma solidity =0.5.16;\r\n\r\n\r\ncontract CStorage {\r\n\taddress public borrowable0;\r\n\taddress public borrowable1;\r\n\taddress public simpleUniswapOracle;\r\n\tuint public safetyMarginSqrt = 1.58113883e18; //safetyMargin: 250%\r\n\tuint public liquidationIncentive = 1.02e18; //2%\r\n\tuint public liquidationFee = 0.02e18; //2%\r\n\t\r\n\tfunction liquidationPenalty() public view returns (uint) {\r\n\t\treturn liquidationIncentive + liquidationFee;\r\n\t}\r\n}",
  "sourcePath": "C:\\Users\\simor\\Desktop\\impermax-x-uniswapv2-core\\contracts\\CStorage.sol",
  "compiler": {
    "name": "solc",
    "version": "0.5.16+commit.9c3226ce.Emscripten.clang"
  },
  "schemaVersion": "3.3.2",
  "updatedAt": "2022-03-14T10:55:07.292Z",
  "devdoc": {
    "methods": {}
  },
  "userdoc": {
    "methods": {}
  }
}