{
  "contractName": "Factory",
  "abi": [
    {
      "inputs": [
        {
          "internalType": "address",
          "name": "_admin",
          "type": "address"
        },
        {
          "internalType": "address",
          "name": "_reservesAdmin",
          "type": "address"
        },
        {
          "internalType": "contract IBDeployer",
          "name": "_bDeployer",
          "type": "address"
        },
        {
          "internalType": "contract ICDeployer",
          "name": "_cDeployer",
          "type": "address"
        },
        {
          "internalType": "contract ISimpleUniswapOracle",
          "name": "_simpleUniswapOracle",
          "type": "address"
        }
      ],
      "payable": false,
      "stateMutability": "nonpayable",
      "type": "constructor"
    },
    {
      "anonymous": false,
      "inputs": [
        {
          "indexed": true,
          "internalType": "address",
          "name": "uniswapV2Pair",
          "type": "address"
        },
        {
          "indexed": true,
          "internalType": "address",
          "name": "token0",
          "type": "address"
        },
        {
          "indexed": true,
          "internalType": "address",
          "name": "token1",
          "type": "address"
        },
        {
          "indexed": false,
          "internalType": "address",
          "name": "collateral",
          "type": "address"
        },
        {
          "indexed": false,
          "internalType": "address",
          "name": "borrowable0",
          "type": "address"
        },
        {
          "indexed": false,
          "internalType": "address",
          "name": "borrowable1",
          "type": "address"
        },
        {
          "indexed": false,
          "internalType": "uint256",
          "name": "lendingPoolId",
          "type": "uint256"
        }
      ],
      "name": "LendingPoolInitialized",
      "type": "event"
    },
    {
      "anonymous": false,
      "inputs": [
        {
          "indexed": false,
          "internalType": "address",
          "name": "oldAdmin",
          "type": "address"
        },
        {
          "indexed": false,
          "internalType": "address",
          "name": "newAdmin",
          "type": "address"
        }
      ],
      "name": "NewAdmin",
      "type": "event"
    },
    {
      "anonymous": false,
      "inputs": [
        {
          "indexed": false,
          "internalType": "address",
          "name": "oldPendingAdmin",
          "type": "address"
        },
        {
          "indexed": false,
          "internalType": "address",
          "name": "newPendingAdmin",
          "type": "address"
        }
      ],
      "name": "NewPendingAdmin",
      "type": "event"
    },
    {
      "anonymous": false,
      "inputs": [
        {
          "indexed": false,
          "internalType": "address",
          "name": "oldReservesAdmin",
          "type": "address"
        },
        {
          "indexed": false,
          "internalType": "address",
          "name": "newReservesAdmin",
          "type": "address"
        }
      ],
      "name": "NewReservesAdmin",
      "type": "event"
    },
    {
      "anonymous": false,
      "inputs": [
        {
          "indexed": false,
          "internalType": "address",
          "name": "oldReservesManager",
          "type": "address"
        },
        {
          "indexed": false,
          "internalType": "address",
          "name": "newReservesManager",
          "type": "address"
        }
      ],
      "name": "NewReservesManager",
      "type": "event"
    },
    {
      "anonymous": false,
      "inputs": [
        {
          "indexed": false,
          "internalType": "address",
          "name": "oldReservesPendingAdmin",
          "type": "address"
        },
        {
          "indexed": false,
          "internalType": "address",
          "name": "newReservesPendingAdmin",
          "type": "address"
        }
      ],
      "name": "NewReservesPendingAdmin",
      "type": "event"
    },
    {
      "constant": true,
      "inputs": [],
      "name": "admin",
      "outputs": [
        {
          "internalType": "address",
          "name": "",
          "type": "address"
        }
      ],
      "payable": false,
      "stateMutability": "view",
      "type": "function"
    },
    {
      "constant": true,
      "inputs": [
        {
          "internalType": "uint256",
          "name": "",
          "type": "uint256"
        }
      ],
      "name": "allLendingPools",
      "outputs": [
        {
          "internalType": "address",
          "name": "",
          "type": "address"
        }
      ],
      "payable": false,
      "stateMutability": "view",
      "type": "function"
    },
    {
      "constant": true,
      "inputs": [],
      "name": "bDeployer",
      "outputs": [
        {
          "internalType": "contract IBDeployer",
          "name": "",
          "type": "address"
        }
      ],
      "payable": false,
      "stateMutability": "view",
      "type": "function"
    },
    {
      "constant": true,
      "inputs": [],
      "name": "cDeployer",
      "outputs": [
        {
          "internalType": "contract ICDeployer",
          "name": "",
          "type": "address"
        }
      ],
      "payable": false,
      "stateMutability": "view",
      "type": "function"
    },
    {
      "constant": true,
      "inputs": [
        {
          "internalType": "address",
          "name": "",
          "type": "address"
        }
      ],
      "name": "getLendingPool",
      "outputs": [
        {
          "internalType": "bool",
          "name": "initialized",
          "type": "bool"
        },
        {
          "internalType": "uint24",
          "name": "lendingPoolId",
          "type": "uint24"
        },
        {
          "internalType": "address",
          "name": "collateral",
          "type": "address"
        },
        {
          "internalType": "address",
          "name": "borrowable0",
          "type": "address"
        },
        {
          "internalType": "address",
          "name": "borrowable1",
          "type": "address"
        }
      ],
      "payable": false,
      "stateMutability": "view",
      "type": "function"
    },
    {
      "constant": true,
      "inputs": [],
      "name": "pendingAdmin",
      "outputs": [
        {
          "internalType": "address",
          "name": "",
          "type": "address"
        }
      ],
      "payable": false,
      "stateMutability": "view",
      "type": "function"
    },
    {
      "constant": true,
      "inputs": [],
      "name": "reservesAdmin",
      "outputs": [
        {
          "internalType": "address",
          "name": "",
          "type": "address"
        }
      ],
      "payable": false,
      "stateMutability": "view",
      "type": "function"
    },
    {
      "constant": true,
      "inputs": [],
      "name": "reservesManager",
      "outputs": [
        {
          "internalType": "address",
          "name": "",
          "type": "address"
        }
      ],
      "payable": false,
      "stateMutability": "view",
      "type": "function"
    },
    {
      "constant": true,
      "inputs": [],
      "name": "reservesPendingAdmin",
      "outputs": [
        {
          "internalType": "address",
          "name": "",
          "type": "address"
        }
      ],
      "payable": false,
      "stateMutability": "view",
      "type": "function"
    },
    {
      "constant": true,
      "inputs": [],
      "name": "simpleUniswapOracle",
      "outputs": [
        {
          "internalType": "contract ISimpleUniswapOracle",
          "name": "",
          "type": "address"
        }
      ],
      "payable": false,
      "stateMutability": "view",
      "type": "function"
    },
    {
      "constant": true,
      "inputs": [],
      "name": "allLendingPoolsLength",
      "outputs": [
        {
          "internalType": "uint256",
          "name": "",
          "type": "uint256"
        }
      ],
      "payable": false,
      "stateMutability": "view",
      "type": "function"
    },
    {
      "constant": false,
      "inputs": [
        {
          "internalType": "address",
          "name": "uniswapV2Pair",
          "type": "address"
        }
      ],
      "name": "createCollateral",
      "outputs": [
        {
          "internalType": "address",
          "name": "collateral",
          "type": "address"
        }
      ],
      "payable": false,
      "stateMutability": "nonpayable",
      "type": "function"
    },
    {
      "constant": false,
      "inputs": [
        {
          "internalType": "address",
          "name": "uniswapV2Pair",
          "type": "address"
        }
      ],
      "name": "createBorrowable0",
      "outputs": [
        {
          "internalType": "address",
          "name": "borrowable0",
          "type": "address"
        }
      ],
      "payable": false,
      "stateMutability": "nonpayable",
      "type": "function"
    },
    {
      "constant": false,
      "inputs": [
        {
          "internalType": "address",
          "name": "uniswapV2Pair",
          "type": "address"
        }
      ],
      "name": "createBorrowable1",
      "outputs": [
        {
          "internalType": "address",
          "name": "borrowable1",
          "type": "address"
        }
      ],
      "payable": false,
      "stateMutability": "nonpayable",
      "type": "function"
    },
    {
      "constant": false,
      "inputs": [
        {
          "internalType": "address",
          "name": "uniswapV2Pair",
          "type": "address"
        }
      ],
      "name": "initializeLendingPool",
      "outputs": [],
      "payable": false,
      "stateMutability": "nonpayable",
      "type": "function"
    },
    {
      "constant": false,
      "inputs": [
        {
          "internalType": "address",
          "name": "newPendingAdmin",
          "type": "address"
        }
      ],
      "name": "_setPendingAdmin",
      "outputs": [],
      "payable": false,
      "stateMutability": "nonpayable",
      "type": "function"
    },
    {
      "constant": false,
      "inputs": [],
      "name": "_acceptAdmin",
      "outputs": [],
      "payable": false,
      "stateMutability": "nonpayable",
      "type": "function"
    },
    {
      "constant": false,
      "inputs": [
        {
          "internalType": "address",
          "name": "newReservesPendingAdmin",
          "type": "address"
        }
      ],
      "name": "_setReservesPendingAdmin",
      "outputs": [],
      "payable": false,
      "stateMutability": "nonpayable",
      "type": "function"
    },
    {
      "constant": false,
      "inputs": [],
      "name": "_acceptReservesAdmin",
      "outputs": [],
      "payable": false,
      "stateMutability": "nonpayable",
      "type": "function"
    },
    {
      "constant": false,
      "inputs": [
        {
          "internalType": "address",
          "name": "newReservesManager",
          "type": "address"
        }
      ],
      "name": "_setReservesManager",
      "outputs": [],
      "payable": false,
      "stateMutability": "nonpayable",
      "type": "function"
    }
  ],
  "bytecode": "0x608060405234801561001057600080fd5b50604051611e30380380611e30833981810160405260a081101561003357600080fd5b5080516020808301516040808501516060860151608090960151600080546001600160a01b03199081166001600160a01b03808a169182178455600280548416828a16179055600780548416828816179055600880548416828d161790556009805490931690851617909155845191825295810195909552825195969395919490927ff9ffabca9c8276e99321725bcb43fb076a6c66a54b7f21c4e8146d8519b417dc92918290030190a160408051600081526001600160a01b038616602082015281517fa328ba21363a99cbf330243928bb26a15acf20bf43166ef838e67ff5d84d4ae7929181900390910190a15050505050611cfa806101366000396000f3fe608060405234801561001057600080fd5b506004361061016c5760003560e01c80639e1348e3116100cd578063d407112711610081578063e9c714f211610066578063e9c714f2146103c2578063eb5ab75f146103ca578063f851a440146103fd5761016c565b8063d40711271461039d578063db5a2690146103ba5761016c565b8063b658ca75116100b2578063b658ca7514610304578063b71d1a0c14610337578063cbed6d711461036a5761016c565b80639e1348e3146102c9578063b1ccc03e146102d15761016c565b8063714c0206116101245780637c6674b5116101095780637c6674b5146102af578063822d73b2146102b7578063998c077d146102bf5761016c565b8063714c02061461028d5780637a4660d5146102a75761016c565b80632678224711610155578063267822471461024a578063345ef9411461025257806349a788381461025a5761016c565b80630572bf5f1461017157806323c6145d146101ee575b600080fd5b6101a46004803603602081101561018757600080fd5b503573ffffffffffffffffffffffffffffffffffffffff16610405565b60408051951515865262ffffff909416602086015273ffffffffffffffffffffffffffffffffffffffff928316858501529082166060850152166080830152519081900360a00190f35b6102216004803603602081101561020457600080fd5b503573ffffffffffffffffffffffffffffffffffffffff16610459565b6040805173ffffffffffffffffffffffffffffffffffffffff9092168252519081900360200190f35b61022161068f565b6102216106ab565b6102216004803603602081101561027057600080fd5b503573ffffffffffffffffffffffffffffffffffffffff166106c7565b6102956108fb565b60408051918252519081900360200190f35b610221610901565b61022161091d565b610221610939565b6102c7610955565b005b610221610ac0565b6102c7600480360360208110156102e757600080fd5b503573ffffffffffffffffffffffffffffffffffffffff16610adc565b6102c76004803603602081101561031a57600080fd5b503573ffffffffffffffffffffffffffffffffffffffff16610bea565b6102c76004803603602081101561034d57600080fd5b503573ffffffffffffffffffffffffffffffffffffffff1661134c565b6102216004803603602081101561038057600080fd5b503573ffffffffffffffffffffffffffffffffffffffff1661145a565b610221600480360360208110156103b357600080fd5b503561168c565b6102216116c0565b6102c76116dc565b6102c7600480360360208110156103e057600080fd5b503573ffffffffffffffffffffffffffffffffffffffff16611847565b610221611955565b60056020526000908152604090208054600182015460029092015460ff82169262ffffff6101008404169273ffffffffffffffffffffffffffffffffffffffff640100000000909104811692918116911685565b600061046482611971565b505073ffffffffffffffffffffffffffffffffffffffff8281166000908152600560205260409020546401000000009004161561050257604080517f08c379a000000000000000000000000000000000000000000000000000000000815260206004820152601860248201527f496d7065726d61783a20414c52454144595f4558495354530000000000000000604482015290519081900360640190fd5b600854604080517f7924fedd00000000000000000000000000000000000000000000000000000000815273ffffffffffffffffffffffffffffffffffffffff858116600483015291519190921691637924fedd9160248083019260209291908290030181600087803b15801561057757600080fd5b505af115801561058b573d6000803e3d6000fd5b505050506040513d60208110156105a157600080fd5b5051604080517f4a5d316c000000000000000000000000000000000000000000000000000000008152905191925073ffffffffffffffffffffffffffffffffffffffff831691634a5d316c9160048082019260009290919082900301818387803b15801561060e57600080fd5b505af1158015610622573d6000803e3d6000fd5b5050505061062f82611a84565b73ffffffffffffffffffffffffffffffffffffffff91821660009081526005602052604090208054928216640100000000027fffffffffffffffff0000000000000000000000000000000000000000ffffffff9093169290921790915590565b60015473ffffffffffffffffffffffffffffffffffffffff1681565b60045473ffffffffffffffffffffffffffffffffffffffff1681565b60006106d282611971565b505073ffffffffffffffffffffffffffffffffffffffff828116600090815260056020526040902060010154161561076b57604080517f08c379a000000000000000000000000000000000000000000000000000000000815260206004820152601860248201527f496d7065726d61783a20414c52454144595f4558495354530000000000000000604482015290519081900360640190fd5b600754604080517f54bcd7ad00000000000000000000000000000000000000000000000000000000815273ffffffffffffffffffffffffffffffffffffffff858116600483015260006024830181905292519316926354bcd7ad92604480840193602093929083900390910190829087803b1580156107e957600080fd5b505af11580156107fd573d6000803e3d6000fd5b505050506040513d602081101561081357600080fd5b5051604080517f4a5d316c000000000000000000000000000000000000000000000000000000008152905191925073ffffffffffffffffffffffffffffffffffffffff831691634a5d316c9160048082019260009290919082900301818387803b15801561088057600080fd5b505af1158015610894573d6000803e3d6000fd5b505050506108a182611a84565b73ffffffffffffffffffffffffffffffffffffffff918216600090815260056020526040902060010180547fffffffffffffffffffffffff0000000000000000000000000000000000000000169282169290921790915590565b60065490565b60085473ffffffffffffffffffffffffffffffffffffffff1681565b60095473ffffffffffffffffffffffffffffffffffffffff1681565b60025473ffffffffffffffffffffffffffffffffffffffff1681565b60035473ffffffffffffffffffffffffffffffffffffffff1633146109db57604080517f08c379a000000000000000000000000000000000000000000000000000000000815260206004820152601660248201527f496d7065726d61783a20554e415554484f52495a454400000000000000000000604482015290519081900360640190fd5b600280546003805473ffffffffffffffffffffffffffffffffffffffff8082167fffffffffffffffffffffffff000000000000000000000000000000000000000080861682179687905590921690925560408051938316808552949092166020840152815190927fa328ba21363a99cbf330243928bb26a15acf20bf43166ef838e67ff5d84d4ae792908290030190a16040805173ffffffffffffffffffffffffffffffffffffffff831681526000602082015281517f01d5e27ed5584d16c62ba1a14cfde0783f979d4797a3fc41342aff17d8ef5b41929181900390910190a15050565b60035473ffffffffffffffffffffffffffffffffffffffff1681565b60025473ffffffffffffffffffffffffffffffffffffffff163314610b6257604080517f08c379a000000000000000000000000000000000000000000000000000000000815260206004820152601660248201527f496d7065726d61783a20554e415554484f52495a454400000000000000000000604482015290519081900360640190fd5b6003805473ffffffffffffffffffffffffffffffffffffffff8381167fffffffffffffffffffffffff0000000000000000000000000000000000000000831681179093556040805191909216808252602082019390935281517f01d5e27ed5584d16c62ba1a14cfde0783f979d4797a3fc41342aff17d8ef5b41929181900390910190a15050565b600080610bf683611971565b91509150610c02611c2f565b5073ffffffffffffffffffffffffffffffffffffffff808416600090815260056020908152604091829020825160a081018452815460ff8116158015835262ffffff61010083041694830194909452640100000000900485169381019390935260018101548416606084015260020154909216608082015290610ce657604080517f08c379a000000000000000000000000000000000000000000000000000000000815260206004820152601d60248201527f496d7065726d61783a20414c52454144595f494e495449414c495a4544000000604482015290519081900360640190fd5b604081015173ffffffffffffffffffffffffffffffffffffffff16610d56576040517f08c379a0000000000000000000000000000000000000000000000000000000008152600401808060200182810382526026815260200180611c7f6026913960400191505060405180910390fd5b606081015173ffffffffffffffffffffffffffffffffffffffff16610dc6576040517f08c379a0000000000000000000000000000000000000000000000000000000008152600401808060200182810382526021815260200180611ca56021913960400191505060405180910390fd5b608081015173ffffffffffffffffffffffffffffffffffffffff16610e36576040517f08c379a0000000000000000000000000000000000000000000000000000000008152600401808060200182810382526021815260200180611c5e6021913960400191505060405180910390fd5b600954604080517f1a788a0200000000000000000000000000000000000000000000000000000000815273ffffffffffffffffffffffffffffffffffffffff878116600483015291516000939290921691631a788a029160248082019260c092909190829003018186803b158015610ead57600080fd5b505afa158015610ec1573d6000803e3d6000fd5b505050506040513d60c0811015610ed757600080fd5b5060a00151905080610f7057600954604080517fc4d66de800000000000000000000000000000000000000000000000000000000815273ffffffffffffffffffffffffffffffffffffffff88811660048301529151919092169163c4d66de891602480830192600092919082900301818387803b158015610f5757600080fd5b505af1158015610f6b573d6000803e3d6000fd5b505050505b6040808301516060840151608085015183517fc548e3c500000000000000000000000000000000000000000000000000000000815273ffffffffffffffffffffffffffffffffffffffff8a811660448301529283166064820152908216608482015260a0600480830191909152601360a48301527f496d7065726d617820436f6c6c61746572616c0000000000000000000000000060c483015260e0602483015260e48201527f696d784300000000000000000000000000000000000000000000000000000000610104820152925191169163c548e3c59161012480830192600092919082900301818387803b15801561106957600080fd5b505af115801561107d573d6000803e3d6000fd5b505050606083015160408085015181517f6a030c1100000000000000000000000000000000000000000000000000000000815273ffffffffffffffffffffffffffffffffffffffff898116604483015291821660648201526080600480830191909152601360848301527f496d7065726d617820426f72726f7761626c650000000000000000000000000060a483015260c0602483015260c48201527f696d78420000000000000000000000000000000000000000000000000000000060e4820152915192169250636a030c119161010480830192600092919082900301818387803b15801561116c57600080fd5b505af1158015611180573d6000803e3d6000fd5b5050505060808281015160408085015181517f6a030c1100000000000000000000000000000000000000000000000000000000815273ffffffffffffffffffffffffffffffffffffffff88811660448301529182166064820152600480820195909552601360848201527f496d7065726d617820426f72726f7761626c650000000000000000000000000060a482015260c0602482015260c48101949094527f696d78420000000000000000000000000000000000000000000000000000000060e48501529051911691636a030c119161010480830192600092919082900301818387803b15801561127157600080fd5b505af1158015611285573d6000803e3d6000fd5b50505073ffffffffffffffffffffffffffffffffffffffff80871660008181526005602090815260409182902080547fffffffffffffffffffffffffffffffffffffffffffffffffffffffffffffff00166001179055868201516060808901516080808b01518b8601518751958a168652928916958501959095529387168386015262ffffff169082015291518885169550938916937f4c3ab495dc8ebd1b2f3232d7632e54411bc7e4d111475e7fbbd5547d9a28c4959281900390910190a45050505050565b60005473ffffffffffffffffffffffffffffffffffffffff1633146113d257604080517f08c379a000000000000000000000000000000000000000000000000000000000815260206004820152601660248201527f496d7065726d61783a20554e415554484f52495a454400000000000000000000604482015290519081900360640190fd5b6001805473ffffffffffffffffffffffffffffffffffffffff8381167fffffffffffffffffffffffff0000000000000000000000000000000000000000831681179093556040805191909216808252602082019390935281517fca4f2f25d0898edd99413412fb94012f9e54ec8142f9b093e7720646a95b16a9929181900390910190a15050565b600061146582611971565b505073ffffffffffffffffffffffffffffffffffffffff82811660009081526005602052604090206002015416156114fe57604080517f08c379a000000000000000000000000000000000000000000000000000000000815260206004820152601860248201527f496d7065726d61783a20414c52454144595f4558495354530000000000000000604482015290519081900360640190fd5b600754604080517f54bcd7ad00000000000000000000000000000000000000000000000000000000815273ffffffffffffffffffffffffffffffffffffffff858116600483015260016024830152915191909216916354bcd7ad9160448083019260209291908290030181600087803b15801561157a57600080fd5b505af115801561158e573d6000803e3d6000fd5b505050506040513d60208110156115a457600080fd5b5051604080517f4a5d316c000000000000000000000000000000000000000000000000000000008152905191925073ffffffffffffffffffffffffffffffffffffffff831691634a5d316c9160048082019260009290919082900301818387803b15801561161157600080fd5b505af1158015611625573d6000803e3d6000fd5b5050505061163282611a84565b73ffffffffffffffffffffffffffffffffffffffff918216600090815260056020526040902060020180547fffffffffffffffffffffffff0000000000000000000000000000000000000000169282169290921790915590565b6006818154811061169957fe5b60009182526020909120015473ffffffffffffffffffffffffffffffffffffffff16905081565b60075473ffffffffffffffffffffffffffffffffffffffff1681565b60015473ffffffffffffffffffffffffffffffffffffffff16331461176257604080517f08c379a000000000000000000000000000000000000000000000000000000000815260206004820152601660248201527f496d7065726d61783a20554e415554484f52495a454400000000000000000000604482015290519081900360640190fd5b600080546001805473ffffffffffffffffffffffffffffffffffffffff8082167fffffffffffffffffffffffff000000000000000000000000000000000000000080861682179687905590921690925560408051938316808552949092166020840152815190927ff9ffabca9c8276e99321725bcb43fb076a6c66a54b7f21c4e8146d8519b417dc92908290030190a16040805173ffffffffffffffffffffffffffffffffffffffff831681526000602082015281517fca4f2f25d0898edd99413412fb94012f9e54ec8142f9b093e7720646a95b16a9929181900390910190a15050565b60025473ffffffffffffffffffffffffffffffffffffffff1633146118cd57604080517f08c379a000000000000000000000000000000000000000000000000000000000815260206004820152601660248201527f496d7065726d61783a20554e415554484f52495a454400000000000000000000604482015290519081900360640190fd5b6004805473ffffffffffffffffffffffffffffffffffffffff8381167fffffffffffffffffffffffff0000000000000000000000000000000000000000831681179093556040805191909216808252602082019390935281517f324bacfad26225895fcf55780481bec4ce49013c92500fa1c25626ff43fbf661929181900390910190a15050565b60005473ffffffffffffffffffffffffffffffffffffffff1681565b6000808273ffffffffffffffffffffffffffffffffffffffff16630dfe16816040518163ffffffff1660e01b815260040160206040518083038186803b1580156119ba57600080fd5b505afa1580156119ce573d6000803e3d6000fd5b505050506040513d60208110156119e457600080fd5b5051604080517fd21220a7000000000000000000000000000000000000000000000000000000008152905191935073ffffffffffffffffffffffffffffffffffffffff85169163d21220a791600480820192602092909190829003018186803b158015611a5057600080fd5b505afa158015611a64573d6000803e3d6000fd5b505050506040513d6020811015611a7a57600080fd5b5051919391925050565b73ffffffffffffffffffffffffffffffffffffffff8116600090815260056020526040902054610100900462ffffff1615611abe57611c2c565b60068054600181810183557ff652222313e28459528d920b65115c16c04f3efc82aaedc97be59f3f377c0d3f909101805473ffffffffffffffffffffffffffffffffffffffff8086167fffffffffffffffffffffffff000000000000000000000000000000000000000092831681179093556040805160a0810182526000808252965462ffffff90811660208381019182528385018a8152606085018b8152608086018c8152998c5260059092529490992092518354915194518616640100000000027fffffffffffffffff0000000000000000000000000000000000000000ffffffff95909316610100027fffffffffffffffffffffffffffffffffffffffffffffffffffffffff000000ff9115157fffffffffffffffffffffffffffffffffffffffffffffffffffffffffffffff009093169290921716179290921691909117815594519385018054948216948316949094179093559051600290930180549390921692169190911790555b50565b6040805160a0810182526000808252602082018190529181018290526060810182905260808101919091529056fe496d7065726d61783a20424f52524f5741424c45315f4e4f545f43524541544544496d7065726d61783a20434f4c4c41544552414c495a41424c455f4e4f545f43524541544544496d7065726d61783a20424f52524f5741424c45305f4e4f545f43524541544544a265627a7a72315820b6feb59a0eace0f9bcad5832c2caa3f7cef10f2a9b0b8d845cb4d55d590ddd9364736f6c63430005100032",
  "source": "pragma solidity =0.5.16;\r\n\r\nimport \"./interfaces/IFactory.sol\";\r\nimport \"./interfaces/IBDeployer.sol\";\r\nimport \"./interfaces/IBorrowable.sol\";\r\nimport \"./interfaces/ICDeployer.sol\";\r\nimport \"./interfaces/ICollateral.sol\";\r\nimport \"./interfaces/IERC20.sol\";\r\nimport \"./interfaces/IUniswapV2Pair.sol\";\r\nimport \"./interfaces/ISimpleUniswapOracle.sol\";\r\n\r\ncontract Factory is IFactory {\r\n\taddress public admin;\r\n\taddress public pendingAdmin;\r\n\taddress public reservesAdmin;\r\n\taddress public reservesPendingAdmin;\r\n\taddress public reservesManager;\r\n\t\t\r\n\tstruct LendingPool {\r\n\t\tbool initialized;\r\n\t\tuint24 lendingPoolId;\r\n\t\taddress collateral;\r\n\t\taddress borrowable0;\r\n\t\taddress borrowable1;\r\n\t}\r\n\tmapping(address => LendingPool) public getLendingPool; // get by UniswapV2Pair\r\n\taddress[] public allLendingPools; // address of the UniswapV2Pair\r\n\tfunction allLendingPoolsLength() external view returns (uint) {\r\n\t\treturn allLendingPools.length;\r\n\t}\r\n\t\r\n\tIBDeployer public bDeployer;\r\n\tICDeployer public cDeployer;\r\n\tISimpleUniswapOracle public simpleUniswapOracle;\r\n\t\r\n\tevent LendingPoolInitialized(address indexed uniswapV2Pair, address indexed token0, address indexed token1,\r\n\t\taddress collateral, address borrowable0, address borrowable1, uint lendingPoolId);\r\n\tevent NewPendingAdmin(address oldPendingAdmin, address newPendingAdmin);\r\n\tevent NewAdmin(address oldAdmin, address newAdmin);\r\n\tevent NewReservesPendingAdmin(address oldReservesPendingAdmin, address newReservesPendingAdmin);\r\n\tevent NewReservesAdmin(address oldReservesAdmin, address newReservesAdmin);\r\n\tevent NewReservesManager(address oldReservesManager, address newReservesManager);\r\n\t\r\n\tconstructor(address _admin, address _reservesAdmin, IBDeployer _bDeployer, ICDeployer _cDeployer, ISimpleUniswapOracle _simpleUniswapOracle) public {\r\n\t\tadmin = _admin;\r\n\t\treservesAdmin = _reservesAdmin;\r\n\t\tbDeployer = _bDeployer;\r\n\t\tcDeployer = _cDeployer;\r\n\t\tsimpleUniswapOracle = _simpleUniswapOracle;\r\n\t\temit NewAdmin(address(0), _admin);\r\n\t\temit NewReservesAdmin(address(0), _reservesAdmin);\r\n\t}\r\n\t\r\n\tfunction _getTokens(address uniswapV2Pair) private view returns (address token0, address token1) {\r\n\t\ttoken0 = IUniswapV2Pair(uniswapV2Pair).token0();\r\n\t\ttoken1 = IUniswapV2Pair(uniswapV2Pair).token1();\r\n\t}\r\n\t\r\n\tfunction _createLendingPool(address uniswapV2Pair) private {\r\n\t\tif (getLendingPool[uniswapV2Pair].lendingPoolId != 0) return;\r\n\t\tallLendingPools.push(uniswapV2Pair);\t\t\r\n\t\tgetLendingPool[uniswapV2Pair] = LendingPool(false, uint24(allLendingPools.length), address(0), address(0), address(0));\r\n\t}\r\n\t\r\n\tfunction createCollateral(address uniswapV2Pair) external returns (address collateral) {\r\n\t\t_getTokens(uniswapV2Pair);\r\n\t\trequire(getLendingPool[uniswapV2Pair].collateral == address(0), \"Impermax: ALREADY_EXISTS\");\t\t\r\n\t\tcollateral = cDeployer.deployCollateral(uniswapV2Pair);\r\n\t\tICollateral(collateral)._setFactory();\r\n\t\t_createLendingPool(uniswapV2Pair);\r\n\t\tgetLendingPool[uniswapV2Pair].collateral = collateral;\r\n\t}\r\n\t\r\n\tfunction createBorrowable0(address uniswapV2Pair) external returns (address borrowable0) {\r\n\t\t_getTokens(uniswapV2Pair);\r\n\t\trequire(getLendingPool[uniswapV2Pair].borrowable0 == address(0), \"Impermax: ALREADY_EXISTS\");\t\t\r\n\t\tborrowable0 = bDeployer.deployBorrowable(uniswapV2Pair, 0);\r\n\t\tIBorrowable(borrowable0)._setFactory();\r\n\t\t_createLendingPool(uniswapV2Pair);\r\n\t\tgetLendingPool[uniswapV2Pair].borrowable0 = borrowable0;\r\n\t}\r\n\t\r\n\tfunction createBorrowable1(address uniswapV2Pair) external returns (address borrowable1) {\r\n\t\t_getTokens(uniswapV2Pair);\r\n\t\trequire(getLendingPool[uniswapV2Pair].borrowable1 == address(0), \"Impermax: ALREADY_EXISTS\");\t\t\r\n\t\tborrowable1 = bDeployer.deployBorrowable(uniswapV2Pair, 1);\r\n\t\tIBorrowable(borrowable1)._setFactory();\r\n\t\t_createLendingPool(uniswapV2Pair);\r\n\t\tgetLendingPool[uniswapV2Pair].borrowable1 = borrowable1;\r\n\t}\r\n\t\r\n\tfunction initializeLendingPool(address uniswapV2Pair) external {\r\n\t\t(address token0, address token1) = _getTokens(uniswapV2Pair);\r\n\t\tLendingPool memory lPool = getLendingPool[uniswapV2Pair];\r\n\t\trequire(!lPool.initialized, \"Impermax: ALREADY_INITIALIZED\");\r\n\t\t\r\n\t\trequire(lPool.collateral != address(0), \"Impermax: COLLATERALIZABLE_NOT_CREATED\");\r\n\t\trequire(lPool.borrowable0 != address(0), \"Impermax: BORROWABLE0_NOT_CREATED\");\r\n\t\trequire(lPool.borrowable1 != address(0), \"Impermax: BORROWABLE1_NOT_CREATED\");\r\n\t\t\r\n\t\t(,,,,,bool oracleInitialized) = simpleUniswapOracle.getPair(uniswapV2Pair);\r\n\t\tif (!oracleInitialized) simpleUniswapOracle.initialize(uniswapV2Pair);\r\n\t\t\r\n\t\tICollateral(lPool.collateral)._initialize(\"Impermax Collateral\", \"imxC\", uniswapV2Pair, lPool.borrowable0, lPool.borrowable1);\r\n\t\tIBorrowable(lPool.borrowable0)._initialize(\"Impermax Borrowable\", \"imxB\", token0, lPool.collateral);\r\n\t\tIBorrowable(lPool.borrowable1)._initialize(\"Impermax Borrowable\", \"imxB\", token1, lPool.collateral);\r\n\t\t\r\n\t\tgetLendingPool[uniswapV2Pair].initialized = true;\r\n\t\temit LendingPoolInitialized(uniswapV2Pair, token0, token1, lPool.collateral, lPool.borrowable0, lPool.borrowable1, lPool.lendingPoolId);\r\n\t}\r\n\t\r\n\tfunction _setPendingAdmin(address newPendingAdmin) external {\r\n\t\trequire(msg.sender == admin, \"Impermax: UNAUTHORIZED\");\r\n\t\taddress oldPendingAdmin = pendingAdmin;\r\n\t\tpendingAdmin = newPendingAdmin;\r\n\t\temit NewPendingAdmin(oldPendingAdmin, newPendingAdmin);\r\n\t}\r\n\r\n\tfunction _acceptAdmin() external {\r\n\t\trequire(msg.sender == pendingAdmin, \"Impermax: UNAUTHORIZED\");\r\n\t\taddress oldAdmin = admin;\r\n\t\taddress oldPendingAdmin = pendingAdmin;\r\n\t\tadmin = pendingAdmin;\r\n\t\tpendingAdmin = address(0);\r\n\t\temit NewAdmin(oldAdmin, admin);\r\n\t\temit NewPendingAdmin(oldPendingAdmin, address(0));\r\n\t}\r\n\t\r\n\tfunction _setReservesPendingAdmin(address newReservesPendingAdmin) external {\r\n\t\trequire(msg.sender == reservesAdmin, \"Impermax: UNAUTHORIZED\");\r\n\t\taddress oldReservesPendingAdmin = reservesPendingAdmin;\r\n\t\treservesPendingAdmin = newReservesPendingAdmin;\r\n\t\temit NewReservesPendingAdmin(oldReservesPendingAdmin, newReservesPendingAdmin);\r\n\t}\r\n\r\n\tfunction _acceptReservesAdmin() external {\r\n\t\trequire(msg.sender == reservesPendingAdmin, \"Impermax: UNAUTHORIZED\");\r\n\t\taddress oldReservesAdmin = reservesAdmin;\r\n\t\taddress oldReservesPendingAdmin = reservesPendingAdmin;\r\n\t\treservesAdmin = reservesPendingAdmin;\r\n\t\treservesPendingAdmin = address(0);\r\n\t\temit NewReservesAdmin(oldReservesAdmin, reservesAdmin);\r\n\t\temit NewReservesPendingAdmin(oldReservesPendingAdmin, address(0));\r\n\t}\r\n\r\n\tfunction _setReservesManager(address newReservesManager) external {\r\n\t\trequire(msg.sender == reservesAdmin, \"Impermax: UNAUTHORIZED\");\r\n\t\taddress oldReservesManager = reservesManager;\r\n\t\treservesManager = newReservesManager;\r\n\t\temit NewReservesManager(oldReservesManager, newReservesManager);\r\n\t}\r\n}\r\n",
  "sourcePath": "C:/Users/simor/Desktop/impermax-x-uniswapv2-core/contracts/Factory.sol",
  "compiler": {
    "name": "solc",
    "version": "0.5.16+commit.9c3226ce.Emscripten.clang"
  },
  "schemaVersion": "3.3.2",
  "updatedAt": "2022-03-14T10:55:07.343Z",
  "devdoc": {
    "methods": {}
  },
  "userdoc": {
    "methods": {}
  }
}